{
  "_format": "hh-sol-artifact-1",
  "contractName": "OlympusBondDepository",
  "sourceName": "contracts/BondDepository.sol",
  "abi": [
    {
      "inputs": [
        {
          "internalType": "address",
          "name": "_OHM",
          "type": "address"
        },
        {
          "internalType": "address",
          "name": "_treasury",
          "type": "address"
        },
        {
          "internalType": "address",
          "name": "_authority",
          "type": "address"
        }
      ],
      "stateMutability": "nonpayable",
      "type": "constructor"
    },
    {
      "anonymous": false,
      "inputs": [
        {
          "indexed": true,
          "internalType": "contract IOlympusAuthority",
          "name": "authority",
          "type": "address"
        }
      ],
      "name": "AuthorityUpdated",
      "type": "event"
    },
    {
      "anonymous": false,
      "inputs": [
        {
          "indexed": false,
          "internalType": "uint256",
          "name": "index",
          "type": "uint256"
        },
        {
          "indexed": false,
          "internalType": "uint256",
          "name": "amount",
          "type": "uint256"
        },
        {
          "indexed": false,
          "internalType": "uint256",
          "name": "payout",
          "type": "uint256"
        },
        {
          "indexed": false,
          "internalType": "uint256",
          "name": "expires",
          "type": "uint256"
        }
      ],
      "name": "CreateBond",
      "type": "event"
    },
    {
      "anonymous": false,
      "inputs": [
        {
          "indexed": false,
          "internalType": "uint256",
          "name": "index",
          "type": "uint256"
        },
        {
          "indexed": false,
          "internalType": "uint256",
          "name": "price",
          "type": "uint256"
        },
        {
          "indexed": false,
          "internalType": "uint256",
          "name": "internalPrice",
          "type": "uint256"
        },
        {
          "indexed": false,
          "internalType": "uint256",
          "name": "debtRatio",
          "type": "uint256"
        }
      ],
      "name": "afterBond",
      "type": "event"
    },
    {
      "anonymous": false,
      "inputs": [
        {
          "indexed": false,
          "internalType": "uint256",
          "name": "index",
          "type": "uint256"
        },
        {
          "indexed": false,
          "internalType": "uint256",
          "name": "price",
          "type": "uint256"
        },
        {
          "indexed": false,
          "internalType": "uint256",
          "name": "internalPrice",
          "type": "uint256"
        },
        {
          "indexed": false,
          "internalType": "uint256",
          "name": "debtRatio",
          "type": "uint256"
        }
      ],
      "name": "beforeBond",
      "type": "event"
    },
    {
      "inputs": [
        {
          "internalType": "uint256",
          "name": "",
          "type": "uint256"
        }
      ],
      "name": "IDs",
      "outputs": [
        {
          "internalType": "address",
          "name": "",
          "type": "address"
        }
      ],
      "stateMutability": "view",
      "type": "function"
    },
    {
      "inputs": [
        {
          "internalType": "address",
          "name": "_principal",
          "type": "address"
        },
        {
          "internalType": "address",
          "name": "_calculator",
          "type": "address"
        },
        {
          "internalType": "uint256",
          "name": "_capacity",
          "type": "uint256"
        },
        {
          "internalType": "bool",
          "name": "_capacityIsPayout",
          "type": "bool"
        }
      ],
      "name": "addBond",
      "outputs": [
        {
          "internalType": "uint256",
          "name": "id_",
          "type": "uint256"
        }
      ],
      "stateMutability": "nonpayable",
      "type": "function"
    },
    {
      "inputs": [],
      "name": "authority",
      "outputs": [
        {
          "internalType": "contract IOlympusAuthority",
          "name": "",
          "type": "address"
        }
      ],
      "stateMutability": "view",
      "type": "function"
    },
    {
      "inputs": [
        {
          "internalType": "uint256",
          "name": "_BID",
          "type": "uint256"
        }
      ],
      "name": "bondInfo",
      "outputs": [
        {
          "internalType": "address",
          "name": "principal_",
          "type": "address"
        },
        {
          "internalType": "address",
          "name": "calculator_",
          "type": "address"
        },
        {
          "internalType": "uint256",
          "name": "totalDebt_",
          "type": "uint256"
        },
        {
          "internalType": "uint256",
          "name": "lastBondCreatedAt_",
          "type": "uint256"
        }
      ],
      "stateMutability": "view",
      "type": "function"
    },
    {
      "inputs": [
        {
          "internalType": "uint256",
          "name": "_BID",
          "type": "uint256"
        }
      ],
      "name": "bondPrice",
      "outputs": [
        {
          "internalType": "uint256",
          "name": "price_",
          "type": "uint256"
        }
      ],
      "stateMutability": "view",
      "type": "function"
    },
    {
      "inputs": [
        {
          "internalType": "uint256",
          "name": "_BID",
          "type": "uint256"
        }
      ],
      "name": "bondPriceInUSD",
      "outputs": [
        {
          "internalType": "uint256",
          "name": "price_",
          "type": "uint256"
        }
      ],
      "stateMutability": "view",
      "type": "function"
    },
    {
      "inputs": [
        {
          "internalType": "uint256",
          "name": "_BID",
          "type": "uint256"
        }
      ],
      "name": "bondTerms",
      "outputs": [
        {
          "internalType": "uint256",
          "name": "controlVariable_",
          "type": "uint256"
        },
        {
          "internalType": "uint256",
          "name": "vestingTerm_",
          "type": "uint256"
        },
        {
          "internalType": "uint256",
          "name": "minimumPrice_",
          "type": "uint256"
        },
        {
          "internalType": "uint256",
          "name": "maxPayout_",
          "type": "uint256"
        },
        {
          "internalType": "uint256",
          "name": "maxDebt_",
          "type": "uint256"
        }
      ],
      "stateMutability": "view",
      "type": "function"
    },
    {
      "inputs": [
        {
          "internalType": "uint256",
          "name": "",
          "type": "uint256"
        }
      ],
      "name": "bonds",
      "outputs": [
        {
          "internalType": "contract IERC20",
          "name": "principal",
          "type": "address"
        },
        {
          "internalType": "contract IBondingCalculator",
          "name": "calculator",
          "type": "address"
        },
        {
          "components": [
            {
              "internalType": "uint256",
              "name": "controlVariable",
              "type": "uint256"
            },
            {
              "internalType": "bool",
              "name": "fixedTerm",
              "type": "bool"
            },
            {
              "internalType": "uint256",
              "name": "vestingTerm",
              "type": "uint256"
            },
            {
              "internalType": "uint256",
              "name": "expiration",
              "type": "uint256"
            },
            {
              "internalType": "uint256",
              "name": "conclusion",
              "type": "uint256"
            },
            {
              "internalType": "uint256",
              "name": "minimumPrice",
              "type": "uint256"
            },
            {
              "internalType": "uint256",
              "name": "maxPayout",
              "type": "uint256"
            },
            {
              "internalType": "uint256",
              "name": "maxDebt",
              "type": "uint256"
            }
          ],
          "internalType": "struct OlympusBondDepository.Terms",
          "name": "terms",
          "type": "tuple"
        },
        {
          "internalType": "bool",
          "name": "termsSet",
          "type": "bool"
        },
        {
          "internalType": "uint256",
          "name": "capacity",
          "type": "uint256"
        },
        {
          "internalType": "bool",
          "name": "capacityIsPayout",
          "type": "bool"
        },
        {
          "internalType": "uint256",
          "name": "totalDebt",
          "type": "uint256"
        },
        {
          "internalType": "uint256",
          "name": "lastDecay",
          "type": "uint256"
        }
      ],
      "stateMutability": "view",
      "type": "function"
    },
    {
      "inputs": [
        {
          "internalType": "uint256",
          "name": "_BID",
          "type": "uint256"
        }
      ],
      "name": "currentDebt",
      "outputs": [
        {
          "internalType": "uint256",
          "name": "",
          "type": "uint256"
        }
      ],
      "stateMutability": "view",
      "type": "function"
    },
    {
      "inputs": [
        {
          "internalType": "uint256",
          "name": "_BID",
          "type": "uint256"
        }
      ],
      "name": "debtDecay",
      "outputs": [
        {
          "internalType": "uint256",
          "name": "decay_",
          "type": "uint256"
        }
      ],
      "stateMutability": "view",
      "type": "function"
    },
    {
      "inputs": [
        {
          "internalType": "uint256",
          "name": "_BID",
          "type": "uint256"
        }
      ],
      "name": "debtRatio",
      "outputs": [
        {
          "internalType": "uint256",
          "name": "debtRatio_",
          "type": "uint256"
        }
      ],
      "stateMutability": "view",
      "type": "function"
    },
    {
      "inputs": [
        {
          "internalType": "uint256",
          "name": "_amount",
          "type": "uint256"
        },
        {
          "internalType": "uint256",
          "name": "_maxPrice",
          "type": "uint256"
        },
        {
          "internalType": "address",
          "name": "_depositor",
          "type": "address"
        },
        {
          "internalType": "uint256",
          "name": "_BID",
          "type": "uint256"
        },
        {
          "internalType": "address",
          "name": "_feo",
          "type": "address"
        }
      ],
      "name": "deposit",
      "outputs": [
        {
          "internalType": "uint256",
          "name": "",
          "type": "uint256"
        },
        {
          "internalType": "uint256",
          "name": "",
          "type": "uint256"
        }
      ],
      "stateMutability": "nonpayable",
      "type": "function"
    },
    {
      "inputs": [
        {
          "internalType": "uint256",
          "name": "_id",
          "type": "uint256"
        }
      ],
      "name": "deprecateBond",
      "outputs": [],
      "stateMutability": "nonpayable",
      "type": "function"
    },
    {
      "inputs": [
        {
          "internalType": "uint256",
          "name": "_BID",
          "type": "uint256"
        }
      ],
      "name": "maxPayout",
      "outputs": [
        {
          "internalType": "uint256",
          "name": "",
          "type": "uint256"
        }
      ],
      "stateMutability": "view",
      "type": "function"
    },
    {
      "inputs": [
        {
          "internalType": "uint256",
          "name": "_value",
          "type": "uint256"
        },
        {
          "internalType": "uint256",
          "name": "_BID",
          "type": "uint256"
        }
      ],
      "name": "payoutFor",
      "outputs": [
        {
          "internalType": "uint256",
          "name": "",
          "type": "uint256"
        }
      ],
      "stateMutability": "view",
      "type": "function"
    },
    {
      "inputs": [
        {
          "internalType": "uint256",
          "name": "_amount",
          "type": "uint256"
        },
        {
          "internalType": "uint256",
          "name": "_BID",
          "type": "uint256"
        }
      ],
      "name": "payoutForAmount",
      "outputs": [
        {
          "internalType": "uint256",
          "name": "",
          "type": "uint256"
        }
      ],
      "stateMutability": "view",
      "type": "function"
    },
    {
      "inputs": [
        {
          "internalType": "contract IOlympusAuthority",
          "name": "_newAuthority",
          "type": "address"
        }
      ],
      "name": "setAuthority",
      "outputs": [],
      "stateMutability": "nonpayable",
      "type": "function"
    },
    {
      "inputs": [
        {
          "internalType": "address",
          "name": "_teller",
          "type": "address"
        }
      ],
      "name": "setTeller",
      "outputs": [],
      "stateMutability": "nonpayable",
      "type": "function"
    },
    {
      "inputs": [
        {
          "internalType": "uint256",
          "name": "_id",
          "type": "uint256"
        },
        {
          "internalType": "uint256",
          "name": "_controlVariable",
          "type": "uint256"
        },
        {
          "internalType": "bool",
          "name": "_fixedTerm",
          "type": "bool"
        },
        {
          "internalType": "uint256",
          "name": "_vestingTerm",
          "type": "uint256"
        },
        {
          "internalType": "uint256",
          "name": "_expiration",
          "type": "uint256"
        },
        {
          "internalType": "uint256",
          "name": "_conclusion",
          "type": "uint256"
        },
        {
          "internalType": "uint256",
          "name": "_minimumPrice",
          "type": "uint256"
        },
        {
          "internalType": "uint256",
          "name": "_maxPayout",
          "type": "uint256"
        },
        {
          "internalType": "uint256",
          "name": "_maxDebt",
          "type": "uint256"
        },
        {
          "internalType": "uint256",
          "name": "_initialDebt",
          "type": "uint256"
        }
      ],
      "name": "setTerms",
      "outputs": [],
      "stateMutability": "nonpayable",
      "type": "function"
    },
    {
      "inputs": [
        {
          "internalType": "uint256",
          "name": "_BID",
          "type": "uint256"
        }
      ],
      "name": "standardizedDebtRatio",
      "outputs": [
        {
          "internalType": "uint256",
          "name": "",
          "type": "uint256"
        }
      ],
      "stateMutability": "view",
      "type": "function"
    },
    {
      "inputs": [],
      "name": "teller",
      "outputs": [
        {
          "internalType": "contract ITeller",
          "name": "",
          "type": "address"
        }
      ],
      "stateMutability": "view",
      "type": "function"
    }
  ],
  "bytecode": "0x610100604052600c60c08190526b15539055551213d49256915160a21b60e0908152620000309160009190620000fe565b503480156200003e57600080fd5b5060405162002d0c38038062002d0c8339810160408190526200006191620001c7565b600180546001600160a01b0319166001600160a01b0383169081179091556040518291907f2f658b440c35314f52658ea8a740e05b284cdc84dc9ae01e891f21b8933e7cad90600090a2506001600160a01b038316620000c057600080fd5b6001600160601b0319606084901b1660a0526001600160a01b038216620000e657600080fd5b5060601b6001600160601b0319166080525062000210565b828054600181600116156101000203166002900490600052602060002090601f01602090048101928262000136576000855562000181565b82601f106200015157805160ff191683800117855562000181565b8280016001018555821562000181579182015b828111156200018157825182559160200191906001019062000164565b506200018f92915062000193565b5090565b5b808211156200018f576000815560010162000194565b80516001600160a01b0381168114620001c257600080fd5b919050565b600080600060608486031215620001dc578283fd5b620001e784620001aa565b9250620001f760208501620001aa565b91506200020760408501620001aa565b90509250925092565b60805160601c60a05160601c612ac362000249600039806112145280611c7b525080610b255280610cae52806116075250612ac36000f3fe608060405234801561001057600080fd5b50600436106101775760003560e01c80636a6c575d116100d8578063aab114641161008c578063bf7e214f11610066578063bf7e214f1461032f578063effc99cd14610337578063f1b7dc781461034a57610177565b8063aab11464146102e5578063abbf4b1714610309578063bcb296671461031c57610177565b8063805b5bc2116100bd578063805b5bc2146102ac578063856519b5146102bf578063a817712a146102d257610177565b80636a6c575d146102865780637a9e5e4b1461029957610177565b806333ff77221161012f57806357edab4e1161011457806357edab4e146102375780635f1c17c01461024c5780636551df2c1461027357610177565b806333ff77221461020f57806357e333ba1461022457610177565b8063172c44ec11610160578063172c44ec146101c8578063187dcb85146101db57806319a64215146101fc57610177565b80630170bbd91461017c57806310fc6172146101a5575b600080fd5b61018f61018a3660046124aa565b61035d565b60405161019c91906129f4565b60405180910390f35b6101b86101b3366004612518565b6106b8565b60405161019c94939291906126ae565b61018f6101d6366004612518565b6107c4565b6101ee6101e9366004612569565b61083b565b60405161019c9291906129fd565b61018f61020a366004612518565b610e70565b61022261021d36600461248e565b6110a8565b005b61018f610232366004612518565b6111ec565b61023f6112a9565b60405161019c919061265c565b61025f61025a366004612518565b6112b8565b60405161019c989796959493929190612728565b610222610281366004612518565b611368565b61018f610294366004612548565b611468565b6102226102a736600461248e565b611496565b61018f6102ba366004612548565b6115d9565b61018f6102cd366004612518565b61169e565b6102226102e03660046125be565b611848565b6102f86102f3366004612518565b611a19565b60405161019c959493929190612a26565b61018f610317366004612518565b611aaf565b61018f61032a366004612518565b611bf5565b61023f611c1b565b61023f610345366004612518565b611c2a565b61018f610358366004612518565b611c54565b60015460408051630229549960e51b815290516000926001600160a01b03169163452a9320916004808301926020929190829003018186803b1580156103a257600080fd5b505afa1580156103b6573d6000803e3d6000fd5b505050506040513d60208110156103cc57600080fd5b50516000906001600160a01b031633146104795760405162461bcd60e51b815260206004820190815282546002600019610100600184161502019091160460248301819052909182916044909101908490801561046a5780601f1061043f5761010080835404028352916020019161046a565b820191906000526020600020905b81548152906001019060200180831161044d57829003601f168201915b50509250505060405180910390fd5b506104826123e8565b60405180610100016040528060008152602001600015158152602001600081526020016000815260200160008152602001600081526020016000815260200160008152509050604051806101000160405280876001600160a01b03168152602001866001600160a01b031681526020018281526020016000151581526020018581526020018415158152602001600081526020014381525060026000600380549050815260200190815260200160002060008201518160000160006101000a8154816001600160a01b0302191690836001600160a01b0316021790555060208201518160010160006101000a8154816001600160a01b0302191690836001600160a01b031602179055506040820151816002016000820151816000015560208201518160010160006101000a81548160ff02191690831515021790555060408201518160020155606082015181600301556080820151816004015560a0820151816005015560c0820151816006015560e082015181600701555050606082015181600a0160006101000a81548160ff021916908315150217905550608082015181600b015560a082015181600c0160006101000a81548160ff02191690831515021790555060c082015181600d015560e082015181600e015590505060038054905091506003869080600181540180825580915050600190039060005260206000200160009091909190916101000a8154816001600160a01b0302191690836001600160a01b0316021790555050949350505050565b6000806000806106c661242f565b50505060009283525050600260208181526040928390208351610100808201865282546001600160a01b03908116835260018401541682850190815286519182018752948301548152600383015460ff90811615159482019490945260048301548187015260058301546060808301919091526006840154608080840191909152600785015460a080850191909152600886015460c080860191909152600987015460e08087019190915299860194909452600a8601548716151592850192909252600b85015490840152600c840154909416151593820193909352600d820154928101839052600e90910154938101849052519151919391929091565b600061080662989680610800633b9aca006107fa6107e187611c54565b6000888152600260208190526040909120015490611d0a565b90611d63565b90611dbd565b60008381526002602052604090206007015490915081101561083657506000818152600260205260409020600701545b919050565b60008061084661242f565b506000848152600260208181526040928390208351610100808201865282546001600160a01b039081168352600184015481168386015286519182018752948301548152600383015460ff9081161515948201949094526004808401548288015260058401546060808401919091526006850154608080850191909152600786015460a080860191909152600887015460c080870191909152600988015460e080880191909152878c0196909652600a8801548916151593870193909352600b87015491860191909152600c860154909616151595840195909552600d84015494830194909452600e909201549181019190915280519351636eb1769f60e11b815290938b93169163dd62ed3e91610962913391309101612670565b60206040518083038186803b15801561097a57600080fd5b505afa15801561098e573d6000803e3d6000fd5b505050506040513d601f19601f820116820180604052508101906109b29190612530565b10156109d95760405162461bcd60e51b81526004016109d090612960565b60405180910390fd5b6001600160a01b0386166109ff5760405162461bcd60e51b81526004016109d0906127d3565b6000858152600260205260409020600a015460ff16610a305760405162461bcd60e51b81526004016109d090612841565b8060400151608001514310610a575760405162461bcd60e51b81526004016109d090612878565b7f8f0783a6c1cb2d85a903a2db160118a565dc172b5e4da3d75733b7b5995a0fa185610a8287610e70565b610a8b886107c4565b610a9489611c54565b604051610aa49493929190612a0b565b60405180910390a1610ab585611dff565b806040015160e001518160c001511115610ae15760405162461bcd60e51b81526004016109d09061280a565b610aea85611e43565b871015610b095760405162461bcd60e51b81526004016109d09061291d565b805160405163f182178360e01b81526000916001600160a01b037f0000000000000000000000000000000000000000000000000000000000000000169163f182178391610b5a918d9060040161270f565b60206040518083038186803b158015610b7257600080fd5b505afa158015610b86573d6000803e3d6000fd5b505050506040513d601f19601f82011682018060405250810190610baa9190612530565b90506000610bb88288611468565b90508260a0015115610c01578083608001511015610be85760405162461bcd60e51b81526004016109d090612878565b6080830151610bf79082611fab565b6080840152610c3a565b8983608001511015610c255760405162461bcd60e51b81526004016109d090612878565b6080830151610c34908b611fab565b60808401525b62989680811015610c5d5760405162461bcd60e51b81526004016109d0906128e6565b610c66876111ec565b811115610c855760405162461bcd60e51b81526004016109d0906129bd565b82516040516323b872dd60e01b81526001600160a01b03909116906323b872dd90610cd89033907f0000000000000000000000000000000000000000000000000000000000000000908f9060040161268a565b602060405180830381600087803b158015610cf257600080fd5b505af1158015610d06573d6000803e3d6000fd5b505050506040513d601f19601f82011682018060405250810190610d2a91906124fc565b5060c0830151610d3a9083611d63565b600088815260026020526040808220600d01929092558482015190910151610d629043611d63565b9050836040015160200151610d7c57506040830151606001515b6000600460009054906101000a90046001600160a01b03166001600160a01b031663f7e4ee108b87600001518f87878e6040518763ffffffff1660e01b8152600401610dcd969594939291906126d7565b602060405180830381600087803b158015610de757600080fd5b505af1158015610dfb573d6000803e3d6000fd5b505050506040513d601f19601f82011682018060405250810190610e1f9190612530565b90507f6671c52657539dfe32e25a5646170ce70ec6adfebf197a90845ab3ec1e42569c898d8585604051610e569493929190612a0b565b60405180910390a1919b919a509098505050505050505050565b6000610e7a61242f565b506000828152600260208181526040928390208351610100808201865282546001600160a01b0390811683526001840154811683860190815287519283018852958401548252600384015460ff90811615159583019590955260048401548288015260058401546060808401919091526006850154608080850191909152600786015460a080860191909152600887015460c080870191909152600988015460e0808801919091529a870195909552600a8701548816151592860192909252600b86015490850152600c850154909516151594830194909452600d83015490820152600e9091015493810193909352905116156110135761100c606461080083602001516001600160a01b03166332da80a385600001516040518263ffffffff1660e01b8152600401610fad919061265c565b60206040518083038186803b158015610fc557600080fd5b505afa158015610fd9573d6000803e3d6000fd5b505050506040513d601f19601f82011682018060405250810190610ffd9190612530565b611006876107c4565b90611d0a565b91506110a2565b61109f606461080083600001516001600160a01b031663313ce5676040518163ffffffff1660e01b815260040160206040518083038186803b15801561105857600080fd5b505afa15801561106c573d6000803e3d6000fd5b505050506040513d601f19601f820116820180604052508101906110909190612635565b60ff16600a0a611006876107c4565b91505b50919050565b600160009054906101000a90046001600160a01b03166001600160a01b0316630c340a246040518163ffffffff1660e01b815260040160206040518083038186803b1580156110f657600080fd5b505afa15801561110a573d6000803e3d6000fd5b505050506040513d602081101561112057600080fd5b50516000906001600160a01b031633146111935760405162461bcd60e51b815260206004820190815282546002600019610100600184161502019091160460248301819052909182916044909101908490801561046a5780601f1061043f5761010080835404028352916020019161046a565b506004546001600160a01b0316156111aa57600080fd5b6001600160a01b0381166111bd57600080fd5b6004805473ffffffffffffffffffffffffffffffffffffffff19166001600160a01b0392909216919091179055565b60006112a3620186a061080060026000868152602001908152602001600020600201600601547f00000000000000000000000000000000000000000000000000000000000000006001600160a01b03166318160ddd6040518163ffffffff1660e01b815260040160206040518083038186803b15801561126b57600080fd5b505afa15801561127f573d6000803e3d6000fd5b505050506040513d601f19601f820116820180604052508101906110069190612530565b92915050565b6004546001600160a01b031681565b60026020818152600092835260409283902080546001820154855161010081018752948301548552600383015460ff9081161515948601949094526004830154958501959095526005820154606085015260068201546080850152600782015460a0850152600882015460c0850152600982015460e0850152600a820154600b830154600c840154600d850154600e909501546001600160a01b0394851698909416969592831694919392169188565b600160009054906101000a90046001600160a01b03166001600160a01b031663452a93206040518163ffffffff1660e01b815260040160206040518083038186803b1580156113b657600080fd5b505afa1580156113ca573d6000803e3d6000fd5b505050506040513d60208110156113e057600080fd5b50516000906001600160a01b031633146114535760405162461bcd60e51b815260206004820190815282546002600019610100600184161502019091160460248301819052909182916044909101908490801561046a5780601f1061043f5761010080835404028352916020019161046a565b506000908152600260205260408120600b0155565b600061148f662386f26fc1000061080061148a86611485876107c4565b611fed565b61216f565b9392505050565b600160009054906101000a90046001600160a01b03166001600160a01b0316630c340a246040518163ffffffff1660e01b815260040160206040518083038186803b1580156114e457600080fd5b505afa1580156114f8573d6000803e3d6000fd5b505050506040513d602081101561150e57600080fd5b50516000906001600160a01b031633146115815760405162461bcd60e51b815260206004820190815282546002600019610100600184161502019091160460248301819052909182916044909101908490801561046a5780601f1061043f5761010080835404028352916020019161046a565b506001805473ffffffffffffffffffffffffffffffffffffffff19166001600160a01b0383169081179091556040517f2f658b440c35314f52658ea8a740e05b284cdc84dc9ae01e891f21b8933e7cad90600090a250565b60008181526002602052604080822054905163f182178360e01b81526001600160a01b0391821691611696917f00000000000000000000000000000000000000000000000000000000000000009091169063f182178390611640908590899060040161270f565b60206040518083038186803b15801561165857600080fd5b505afa15801561166c573d6000803e3d6000fd5b505050506040513d601f19601f820116820180604052508101906116909190612530565b84611468565b949350505050565b60006116a861242f565b506000828152600260208181526040928390208351610100808201865282546001600160a01b0390811683526001840154811683860190815287519283018852958401548252600384015460ff90811615159583019590955260048401548288015260058401546060808401919091526006850154608080850191909152600786015460a080860191909152600887015460c080870191909152600988015460e0808801919091529a870195909552600a8701548816151592860192909252600b86015490850152600c850154909516151594830194909452600d83015490820152600e90910154938101939093529051161561183f57611837633b9aca0061080083602001516001600160a01b03166332da80a385600001516040518263ffffffff1660e01b81526004016117de919061265c565b60206040518083038186803b1580156117f657600080fd5b505afa15801561180a573d6000803e3d6000fd5b505050506040513d601f19601f8201168201806040525081019061182e9190612530565b61100687611c54565b915050610836565b61183783611c54565b600160009054906101000a90046001600160a01b03166001600160a01b031663452a93206040518163ffffffff1660e01b815260040160206040518083038186803b15801561189657600080fd5b505afa1580156118aa573d6000803e3d6000fd5b505050506040513d60208110156118c057600080fd5b50516000906001600160a01b031633146119335760405162461bcd60e51b815260206004820190815282546002600019610100600184161502019091160460248301819052909182916044909101908490801561046a5780601f1061043f5761010080835404028352916020019161046a565b5060008a8152600260205260409020600a015460ff16156119665760405162461bcd60e51b81526004016109d0906128af565b61196e6123e8565b506040805161010081018252998a529715156020808b019182528a8a0198895260608b0197885260808b0196875260a08b0195865260c08b0194855260e08b0193845260009b8c5260029081905298909a20985197890197909755975160038801805491151560ff1992831617905594516004880155925160058701559051600686015551600785015551600884015592516009830155600d820155600a0180549091166001179055565b6000806000806000611a296123e8565b505050600093845250506002602081815260409384902084516101008101865292810154808452600382015460ff1615159284019290925260048101549483018590526005810154606084015260068101546080840152600781015460a08401819052600882015460c0850181905260099092015460e090940184905291959193509190565b6000611ab961242f565b5060008281526002602081815260408084208151610100808201845282546001600160a01b0390811683526001840154168286015283519081018452948201548552600382015460ff90811615159486019490945260048201548584015260058201546060808701919091526006830154608080880191909152600784015460a080890191909152600885015460c0808a0191909152600986015460e0808b019190915296850198909852600a8501548716151592840192909252600b84015490830152600c830154909416151593810193909352600d81015493830193909352600e909201549181018290529190611bb3904390611fab565b9050611bd8826040015160400151610800838560c00151611d0a90919063ffffffff16565b92508160c00151831115611bee578160c0015192505b5050919050565b60006112a3611c0383611aaf565b6000848152600260205260409020600d015490611fab565b6001546001600160a01b031681565b60038181548110611c3a57600080fd5b6000918252602090912001546001600160a01b0316905081565b60006112a3670de0b6b3a764000061080061148a611c79633b9aca0061100688611bf5565b7f00000000000000000000000000000000000000000000000000000000000000006001600160a01b03166318160ddd6040518163ffffffff1660e01b815260040160206040518083038186803b158015611cd257600080fd5b505afa158015611ce6573d6000803e3d6000fd5b505050506040513d601f19601f820116820180604052508101906114859190612530565b600082611d19575060006112a3565b82820282848281611d2657fe5b041461148f5760405162461bcd60e51b8152600401808060200182810382526021815260200180612a966021913960400191505060405180910390fd5b60008282018381101561148f576040805162461bcd60e51b815260206004820152601b60248201527f536166654d6174683a206164646974696f6e206f766572666c6f770000000000604482015290519081900360640190fd5b600061148f83836040518060400160405280601a81526020017f536166654d6174683a206469766973696f6e206279207a65726f000000000000815250612187565b611e23611e0b82611aaf565b6000838152600260205260409020600d015490611fab565b600091825260026020526040909120600d81019190915543600e90910155565b6000611e4d61242f565b506000828152600260208181526040928390208351610100808201865282546001600160a01b0390811683526001840154168285015285519081018652938201548452600382015460ff90811615159385019390935260048201548486015260058201546060808601919091526006830154608080870191909152600784015460a080880191909152600885015460c080890191909152600986015460e0808a019190915298850197909752600a8501548616151592840192909252600b84015490830152600c830154909316151592810192909252600d81015492820192909252600e9091015491810191909152611f6362989680610800633b9aca006107fa611f5788611c54565b60408701515190611d0a565b9150806040015160a00151821015611f8557806040015160a0015191506110a2565b604081015160a00151156110a25760008381526002602052604081206007015550919050565b600061148f83836040518060400160405280601e81526020017f536166654d6174683a207375627472616374696f6e206f766572666c6f770000815250612238565b611ff561247c565b600082116120345760405162461bcd60e51b8152600401808060200182810382526026815260200180612a706026913960400191505060405180910390fd5b8261204e57506040805160208101909152600081526112a3565b71ffffffffffffffffffffffffffffffffffff83116120f557600082607085901b8161207657fe5b0490506001600160e01b038111156120d5576040805162461bcd60e51b815260206004820152601e60248201527f4669786564506f696e743a3a6672616374696f6e3a206f766572666c6f770000604482015290519081900360640190fd5b6040518060200160405280826001600160e01b03168152509150506112a3565b6000612111846e01000000000000000000000000000085612292565b90506001600160e01b038111156120d5576040805162461bcd60e51b815260206004820152601e60248201527f4669786564506f696e743a3a6672616374696f6e3a206f766572666c6f770000604482015290519081900360640190fd5b516612725dd1d243ab6001600160e01b039091160490565b600081836122135760405162461bcd60e51b81526004018080602001828103825283818151815260200191508051906020019080838360005b838110156121d85781810151838201526020016121c0565b50505050905090810190601f1680156122055780820380516001836020036101000a031916815260200191505b509250505060405180910390fd5b50600083858161221f57fe5b04905083858161222b57fe5b0681850201851461169657fe5b6000818484111561228a5760405162461bcd60e51b81526020600482018181528351602484015283519092839260449091019190850190808383600083156121d85781810151838201526020016121c0565b505050900390565b60008060006122a1868661234b565b91509150600084806122af57fe5b8688099050828111156122c3576001820391505b9182900391816122e1578483816122d657fe5b04935050505061148f565b848210612335576040805162461bcd60e51b815260206004820152601a60248201527f46756c6c4d6174683a2046554c4c4449565f4f564552464c4f57000000000000604482015290519081900360640190fd5b612340838387612378565b979650505050505050565b6000808060001984860990508385029250828103915082811015612370576001820391505b509250929050565b6000818103821680838161238857fe5b04925080858161239457fe5b0494508081600003816123a357fe5b60028581038087028203028087028203028087028203028087028203028087028203028087028203029586029003909402930460010193909302939093010292915050565b604051806101000160405280600081526020016000151581526020016000815260200160008152602001600081526020016000815260200160008152602001600081525090565b60408051610100810182526000808252602082015290810161244f6123e8565b81526020016000151581526020016000815260200160001515815260200160008152602001600081525090565b60408051602081019091526000815290565b60006020828403121561249f578081fd5b813561148f81612a49565b600080600080608085870312156124bf578283fd5b84356124ca81612a49565b935060208501356124da81612a49565b92506040850135915060608501356124f181612a61565b939692955090935050565b60006020828403121561250d578081fd5b815161148f81612a61565b600060208284031215612529578081fd5b5035919050565b600060208284031215612541578081fd5b5051919050565b6000806040838503121561255a578182fd5b50508035926020909101359150565b600080600080600060a08688031215612580578081fd5b8535945060208601359350604086013561259981612a49565b92506060860135915060808601356125b081612a49565b809150509295509295909350565b6000806000806000806000806000806101408b8d0312156125dd578485fd5b8a35995060208b0135985060408b01356125f681612a61565b999c989b5098996060810135995060808101359860a0820135985060c0820135975060e082013596506101008201359550610120909101359350915050565b600060208284031215612646578081fd5b815160ff8116811461148f578182fd5b15159052565b6001600160a01b0391909116815260200190565b6001600160a01b0392831681529116602082015260400190565b6001600160a01b039384168152919092166020820152604081019190915260600190565b6001600160a01b0394851681529290931660208301526040820152606081019190915260800190565b6001600160a01b039687168152948616602086015260408501939093526060840191909152608083015290911660a082015260c00190565b6001600160a01b03929092168252602082015260400190565b60006101e0820190506001600160a01b03808b168352808a166020840152508751604083015260208801511515606083015260408801516080830152606088015160a0830152608088015160c083015260a088015160e083015260c088015161010083015260e08801516101208301526127a6610140830188612656565b856101608301526127bb610180830186612656565b6101a08201939093526101c001529695505050505050565b6020808252600f908201527f496e76616c696420616464726573730000000000000000000000000000000000604082015260600190565b60208082526011908201527f4d61782064656274206578636565646564000000000000000000000000000000604082015260600190565b6020808252600f908201527f4e6f7420696e697469616c697a65640000000000000000000000000000000000604082015260600190565b6020808252600e908201527f426f6e6420636f6e636c75646564000000000000000000000000000000000000604082015260600190565b6020808252600b908201527f416c726561647920736574000000000000000000000000000000000000000000604082015260600190565b6020808252600e908201527f426f6e6420746f6f20736d616c6c000000000000000000000000000000000000604082015260600190565b60208082526023908201527f536c697070616765206c696d69743a206d6f7265207468616e206d617820707260408201526269636560e81b606082015260800190565b60208082526029908201527f4d75737420686176652074686520726571756972656420616c6c6f77616e636560408201527f20746f207370656e640000000000000000000000000000000000000000000000606082015260800190565b6020808252600e908201527f426f6e6420746f6f206c61726765000000000000000000000000000000000000604082015260600190565b90815260200190565b918252602082015260400190565b93845260208401929092526040830152606082015260800190565b948552602085019390935260408401919091526060830152608082015260a00190565b6001600160a01b0381168114612a5e57600080fd5b50565b8015158114612a5e57600080fdfe4669786564506f696e743a3a6672616374696f6e3a206469766973696f6e206279207a65726f536166654d6174683a206d756c7469706c69636174696f6e206f766572666c6f77a164736f6c6343000705000a",
  "linkReferences": {},
  "deployedLinkReferences": {}
}