{
  "_format": "hh-sol-artifact-1",
  "contractName": "OlympusBondDepository",
  "sourceName": "contracts/BondDepository.sol",
  "abi": [
    {
      "inputs": [
        {
          "internalType": "address",
          "name": "_OHM",
          "type": "address"
        },
        {
          "internalType": "address",
          "name": "_treasury",
          "type": "address"
        },
        {
          "internalType": "address",
          "name": "_authority",
          "type": "address"
        }
      ],
      "stateMutability": "nonpayable",
      "type": "constructor"
    },
    {
      "anonymous": false,
      "inputs": [
        {
          "indexed": true,
          "internalType": "contract IOlympusAuthority",
          "name": "authority",
          "type": "address"
        }
      ],
      "name": "AuthorityUpdated",
      "type": "event"
    },
    {
      "anonymous": false,
      "inputs": [
        {
          "indexed": false,
          "internalType": "uint256",
          "name": "index",
          "type": "uint256"
        },
        {
          "indexed": false,
          "internalType": "uint256",
          "name": "amount",
          "type": "uint256"
        },
        {
          "indexed": false,
          "internalType": "uint256",
          "name": "payout",
          "type": "uint256"
        },
        {
          "indexed": false,
          "internalType": "uint256",
          "name": "expires",
          "type": "uint256"
        }
      ],
      "name": "CreateBond",
      "type": "event"
    },
    {
      "anonymous": false,
      "inputs": [
        {
          "indexed": false,
          "internalType": "uint256",
          "name": "index",
          "type": "uint256"
        },
        {
          "indexed": false,
          "internalType": "uint256",
          "name": "price",
          "type": "uint256"
        },
        {
          "indexed": false,
          "internalType": "uint256",
          "name": "internalPrice",
          "type": "uint256"
        },
        {
          "indexed": false,
          "internalType": "uint256",
          "name": "debtRatio",
          "type": "uint256"
        }
      ],
      "name": "afterBond",
      "type": "event"
    },
    {
      "anonymous": false,
      "inputs": [
        {
          "indexed": false,
          "internalType": "uint256",
          "name": "index",
          "type": "uint256"
        },
        {
          "indexed": false,
          "internalType": "uint256",
          "name": "price",
          "type": "uint256"
        },
        {
          "indexed": false,
          "internalType": "uint256",
          "name": "internalPrice",
          "type": "uint256"
        },
        {
          "indexed": false,
          "internalType": "uint256",
          "name": "debtRatio",
          "type": "uint256"
        }
      ],
      "name": "beforeBond",
      "type": "event"
    },
    {
      "inputs": [
        {
          "internalType": "uint256",
          "name": "",
          "type": "uint256"
        }
      ],
      "name": "IDs",
      "outputs": [
        {
          "internalType": "address",
          "name": "",
          "type": "address"
        }
      ],
      "stateMutability": "view",
      "type": "function"
    },
    {
      "inputs": [
        {
          "internalType": "address",
          "name": "_principal",
          "type": "address"
        },
        {
          "internalType": "address",
          "name": "_calculator",
          "type": "address"
        },
        {
          "internalType": "uint256",
          "name": "_capacity",
          "type": "uint256"
        },
        {
          "internalType": "bool",
          "name": "_capacityIsPayout",
          "type": "bool"
        }
      ],
      "name": "addBond",
      "outputs": [
        {
          "internalType": "uint256",
          "name": "id_",
          "type": "uint256"
        }
      ],
      "stateMutability": "nonpayable",
      "type": "function"
    },
    {
      "inputs": [],
      "name": "authority",
      "outputs": [
        {
          "internalType": "contract IOlympusAuthority",
          "name": "",
          "type": "address"
        }
      ],
      "stateMutability": "view",
      "type": "function"
    },
    {
      "inputs": [
        {
          "internalType": "uint256",
          "name": "_BID",
          "type": "uint256"
        }
      ],
      "name": "bondInfo",
      "outputs": [
        {
          "internalType": "address",
          "name": "principal_",
          "type": "address"
        },
        {
          "internalType": "address",
          "name": "calculator_",
          "type": "address"
        },
        {
          "internalType": "uint256",
          "name": "totalDebt_",
          "type": "uint256"
        },
        {
          "internalType": "uint256",
          "name": "lastBondCreatedAt_",
          "type": "uint256"
        }
      ],
      "stateMutability": "view",
      "type": "function"
    },
    {
      "inputs": [
        {
          "internalType": "uint256",
          "name": "_BID",
          "type": "uint256"
        }
      ],
      "name": "bondPrice",
      "outputs": [
        {
          "internalType": "uint256",
          "name": "price_",
          "type": "uint256"
        }
      ],
      "stateMutability": "view",
      "type": "function"
    },
    {
      "inputs": [
        {
          "internalType": "uint256",
          "name": "_BID",
          "type": "uint256"
        }
      ],
      "name": "bondPriceInUSD",
      "outputs": [
        {
          "internalType": "uint256",
          "name": "price_",
          "type": "uint256"
        }
      ],
      "stateMutability": "view",
      "type": "function"
    },
    {
      "inputs": [
        {
          "internalType": "uint256",
          "name": "_BID",
          "type": "uint256"
        }
      ],
      "name": "bondTerms",
      "outputs": [
        {
          "internalType": "uint256",
          "name": "controlVariable_",
          "type": "uint256"
        },
        {
          "internalType": "uint256",
          "name": "vestingTerm_",
          "type": "uint256"
        },
        {
          "internalType": "uint256",
          "name": "minimumPrice_",
          "type": "uint256"
        },
        {
          "internalType": "uint256",
          "name": "maxPayout_",
          "type": "uint256"
        },
        {
          "internalType": "uint256",
          "name": "maxDebt_",
          "type": "uint256"
        }
      ],
      "stateMutability": "view",
      "type": "function"
    },
    {
      "inputs": [
        {
          "internalType": "uint256",
          "name": "",
          "type": "uint256"
        }
      ],
      "name": "bonds",
      "outputs": [
        {
          "internalType": "contract IERC20",
          "name": "principal",
          "type": "address"
        },
        {
          "internalType": "contract IBondingCalculator",
          "name": "calculator",
          "type": "address"
        },
        {
          "components": [
            {
              "internalType": "uint256",
              "name": "controlVariable",
              "type": "uint256"
            },
            {
              "internalType": "bool",
              "name": "fixedTerm",
              "type": "bool"
            },
            {
              "internalType": "uint256",
              "name": "vestingTerm",
              "type": "uint256"
            },
            {
              "internalType": "uint256",
              "name": "expiration",
              "type": "uint256"
            },
            {
              "internalType": "uint256",
              "name": "conclusion",
              "type": "uint256"
            },
            {
              "internalType": "uint256",
              "name": "minimumPrice",
              "type": "uint256"
            },
            {
              "internalType": "uint256",
              "name": "maxPayout",
              "type": "uint256"
            },
            {
              "internalType": "uint256",
              "name": "maxDebt",
              "type": "uint256"
            }
          ],
          "internalType": "struct OlympusBondDepository.Terms",
          "name": "terms",
          "type": "tuple"
        },
        {
          "internalType": "bool",
          "name": "termsSet",
          "type": "bool"
        },
        {
          "internalType": "uint256",
          "name": "capacity",
          "type": "uint256"
        },
        {
          "internalType": "uint256",
          "name": "maxCapacity",
          "type": "uint256"
        },
        {
          "internalType": "bool",
          "name": "capacityIsPayout",
          "type": "bool"
        },
        {
          "internalType": "uint256",
          "name": "totalDebt",
          "type": "uint256"
        },
        {
          "internalType": "uint256",
          "name": "lastDecay",
          "type": "uint256"
        }
      ],
      "stateMutability": "view",
      "type": "function"
    },
    {
      "inputs": [
        {
          "internalType": "uint256",
          "name": "_BID",
          "type": "uint256"
        }
      ],
      "name": "currentDebt",
      "outputs": [
        {
          "internalType": "uint256",
          "name": "",
          "type": "uint256"
        }
      ],
      "stateMutability": "view",
      "type": "function"
    },
    {
      "inputs": [
        {
          "internalType": "uint256",
          "name": "_BID",
          "type": "uint256"
        }
      ],
      "name": "debtDecay",
      "outputs": [
        {
          "internalType": "uint256",
          "name": "decay_",
          "type": "uint256"
        }
      ],
      "stateMutability": "view",
      "type": "function"
    },
    {
      "inputs": [
        {
          "internalType": "uint256",
          "name": "_BID",
          "type": "uint256"
        }
      ],
      "name": "debtRatio",
      "outputs": [
        {
          "internalType": "uint256",
          "name": "debtRatio_",
          "type": "uint256"
        }
      ],
      "stateMutability": "view",
      "type": "function"
    },
    {
      "inputs": [
        {
          "internalType": "uint256",
          "name": "_amount",
          "type": "uint256"
        },
        {
          "internalType": "uint256",
          "name": "_maxPrice",
          "type": "uint256"
        },
        {
          "internalType": "address",
          "name": "_depositor",
          "type": "address"
        },
        {
          "internalType": "uint256",
          "name": "_BID",
          "type": "uint256"
        },
        {
          "internalType": "address",
          "name": "_feo",
          "type": "address"
        }
      ],
      "name": "deposit",
      "outputs": [
        {
          "internalType": "uint256",
          "name": "",
          "type": "uint256"
        },
        {
          "internalType": "uint256",
          "name": "",
          "type": "uint256"
        }
      ],
      "stateMutability": "nonpayable",
      "type": "function"
    },
    {
      "inputs": [
        {
          "internalType": "uint256",
          "name": "_id",
          "type": "uint256"
        }
      ],
      "name": "deprecateBond",
      "outputs": [],
      "stateMutability": "nonpayable",
      "type": "function"
    },
    {
      "inputs": [
        {
          "internalType": "uint256",
          "name": "_BID",
          "type": "uint256"
        }
      ],
      "name": "getCapacity",
      "outputs": [
        {
          "internalType": "uint256",
          "name": "_capacity",
          "type": "uint256"
        },
        {
          "internalType": "uint256",
          "name": "_maxCapacity",
          "type": "uint256"
        }
      ],
      "stateMutability": "view",
      "type": "function"
    },
    {
      "inputs": [
        {
          "internalType": "uint256",
          "name": "_BID",
          "type": "uint256"
        }
      ],
      "name": "maxPayout",
      "outputs": [
        {
          "internalType": "uint256",
          "name": "",
          "type": "uint256"
        }
      ],
      "stateMutability": "view",
      "type": "function"
    },
    {
      "inputs": [
        {
          "internalType": "uint256",
          "name": "_value",
          "type": "uint256"
        },
        {
          "internalType": "uint256",
          "name": "_BID",
          "type": "uint256"
        }
      ],
      "name": "payoutFor",
      "outputs": [
        {
          "internalType": "uint256",
          "name": "",
          "type": "uint256"
        }
      ],
      "stateMutability": "view",
      "type": "function"
    },
    {
      "inputs": [
        {
          "internalType": "uint256",
          "name": "_amount",
          "type": "uint256"
        },
        {
          "internalType": "uint256",
          "name": "_BID",
          "type": "uint256"
        }
      ],
      "name": "payoutForAmount",
      "outputs": [
        {
          "internalType": "uint256",
          "name": "",
          "type": "uint256"
        }
      ],
      "stateMutability": "view",
      "type": "function"
    },
    {
      "inputs": [
        {
          "internalType": "contract IOlympusAuthority",
          "name": "_newAuthority",
          "type": "address"
        }
      ],
      "name": "setAuthority",
      "outputs": [],
      "stateMutability": "nonpayable",
      "type": "function"
    },
    {
      "inputs": [
        {
          "internalType": "address",
          "name": "_teller",
          "type": "address"
        }
      ],
      "name": "setTeller",
      "outputs": [],
      "stateMutability": "nonpayable",
      "type": "function"
    },
    {
      "inputs": [
        {
          "internalType": "uint256",
          "name": "_id",
          "type": "uint256"
        },
        {
          "internalType": "uint256",
          "name": "_controlVariable",
          "type": "uint256"
        },
        {
          "internalType": "bool",
          "name": "_fixedTerm",
          "type": "bool"
        },
        {
          "internalType": "uint256",
          "name": "_vestingTerm",
          "type": "uint256"
        },
        {
          "internalType": "uint256",
          "name": "_expiration",
          "type": "uint256"
        },
        {
          "internalType": "uint256",
          "name": "_conclusion",
          "type": "uint256"
        },
        {
          "internalType": "uint256",
          "name": "_minimumPrice",
          "type": "uint256"
        },
        {
          "internalType": "uint256",
          "name": "_maxPayout",
          "type": "uint256"
        },
        {
          "internalType": "uint256",
          "name": "_maxDebt",
          "type": "uint256"
        },
        {
          "internalType": "uint256",
          "name": "_initialDebt",
          "type": "uint256"
        }
      ],
      "name": "setTerms",
      "outputs": [],
      "stateMutability": "nonpayable",
      "type": "function"
    },
    {
      "inputs": [
        {
          "internalType": "uint256",
          "name": "_BID",
          "type": "uint256"
        }
      ],
      "name": "standardizedDebtRatio",
      "outputs": [
        {
          "internalType": "uint256",
          "name": "",
          "type": "uint256"
        }
      ],
      "stateMutability": "view",
      "type": "function"
    },
    {
      "inputs": [],
      "name": "teller",
      "outputs": [
        {
          "internalType": "contract ITeller",
          "name": "",
          "type": "address"
        }
      ],
      "stateMutability": "view",
      "type": "function"
    }
  ],
  "bytecode": "0x610100604052600c60c08190526b15539055551213d49256915160a21b60e0908152620000309160009190620000fe565b503480156200003e57600080fd5b5060405162002e2d38038062002e2d8339810160408190526200006191620001c7565b600180546001600160a01b0319166001600160a01b0383169081179091556040518291907f2f658b440c35314f52658ea8a740e05b284cdc84dc9ae01e891f21b8933e7cad90600090a2506001600160a01b038316620000c057600080fd5b6001600160601b0319606084901b1660a0526001600160a01b038216620000e657600080fd5b5060601b6001600160601b0319166080525062000210565b828054600181600116156101000203166002900490600052602060002090601f01602090048101928262000136576000855562000181565b82601f106200015157805160ff191683800117855562000181565b8280016001018555821562000181579182015b828111156200018157825182559160200191906001019062000164565b506200018f92915062000193565b5090565b5b808211156200018f576000815560010162000194565b80516001600160a01b0381168114620001c257600080fd5b919050565b600080600060608486031215620001dc578283fd5b620001e784620001aa565b9250620001f760208501620001aa565b91506200020760408501620001aa565b90509250925092565b60805160601c60a05160601c612be462000249600039806111845280611d17525080610a745280610c04528061157e5250612be46000f3fe608060405234801561001057600080fd5b50600436106101825760003560e01c80637a9e5e4b116100d8578063abbf4b171161008c578063bf7e214f11610066578063bf7e214f1461034e578063effc99cd14610356578063f1b7dc781461036957610182565b8063abbf4b1714610315578063bcb2966714610328578063bcd5349f1461033b57610182565b8063856519b5116100bd578063856519b5146102cb578063a817712a146102de578063aab11464146102f157610182565b80637a9e5e4b146102a5578063805b5bc2146102b857610182565b806333ff77221161013a5780635f1c17c0116101145780635f1c17c0146102575780636551df2c1461027f5780636a6c575d1461029257610182565b806333ff77221461021a57806357e333ba1461022f57806357edab4e1461024257610182565b8063172c44ec1161016b578063172c44ec146101d3578063187dcb85146101e657806319a642151461020757610182565b80630170bbd91461018757806310fc6172146101b0575b600080fd5b61019a610195366004612555565b61037c565b6040516101a79190612b15565b60405180910390f35b6101c36101be3660046125c3565b6106e8565b6040516101a79493929190612759565b61019a6101e13660046125c3565b6107ff565b6101f96101f4366004612614565b610876565b6040516101a7929190612b1e565b61019a6102153660046125c3565b610dd1565b61022d610228366004612539565b611018565b005b61019a61023d3660046125c3565b61115c565b61024a611219565b6040516101a79190612707565b61026a6102653660046125c3565b611228565b6040516101a7999897969594939291906127d3565b61022d61028d3660046125c3565b6112df565b61019a6102a03660046125f3565b6113df565b61022d6102b3366004612539565b61140d565b61019a6102c63660046125f3565b611550565b61019a6102d93660046125c3565b611615565b61022d6102ec366004612669565b6117ce565b6103046102ff3660046125c3565b61199f565b6040516101a7959493929190612b47565b61019a6103233660046125c3565b611a35565b61019a6103363660046125c3565b611b84565b6101f96103493660046125c3565b611baa565b61024a611cb7565b61024a6103643660046125c3565b611cc6565b61019a6103773660046125c3565b611cf0565b60015460408051630229549960e51b815290516000926001600160a01b03169163452a9320916004808301926020929190829003018186803b1580156103c157600080fd5b505afa1580156103d5573d6000803e3d6000fd5b505050506040513d60208110156103eb57600080fd5b50516000906001600160a01b031633146104985760405162461bcd60e51b81526020600482019081528254600260001961010060018416150201909116046024830181905290918291604490910190849080156104895780601f1061045e57610100808354040283529160200191610489565b820191906000526020600020905b81548152906001019060200180831161046c57829003601f168201915b50509250505060405180910390fd5b506104a161248c565b60405180610100016040528060008152602001600015158152602001600081526020016000815260200160008152602001600081526020016000815260200160008152509050604051806101200160405280876001600160a01b03168152602001866001600160a01b031681526020018281526020016000151581526020018581526020018581526020018415158152602001600081526020014381525060026000600380549050815260200190815260200160002060008201518160000160006101000a8154816001600160a01b0302191690836001600160a01b0316021790555060208201518160010160006101000a8154816001600160a01b0302191690836001600160a01b031602179055506040820151816002016000820151816000015560208201518160010160006101000a81548160ff02191690831515021790555060408201518160020155606082015181600301556080820151816004015560a0820151816005015560c0820151816006015560e082015181600701555050606082015181600a0160006101000a81548160ff021916908315150217905550608082015181600b015560a082015181600c015560c082015181600d0160006101000a81548160ff02191690831515021790555060e082015181600e015561010082015181600f015590505060038054905091506003869080600181540180825580915050600190039060005260206000200160009091909190916101000a8154816001600160a01b0302191690836001600160a01b0316021790555050949350505050565b6000806000806106f66124d3565b505050600092835250506002602081815260409283902083516101208101855281546001600160a01b03908116825260018301541681840190815285516101008181018852958401548152600384015460ff90811615159582019590955260048401548188015260058401546060808301919091526006850154608080840191909152600786015460a080850191909152600887015460c080860191909152600988015460e0808701919091529a870194909452600a8701548816151592860192909252600b86015490850152600c85015490840152600d840154909416151593820193909352600e820154948101859052600f90910154928101839052519051909390929190565b60006108416298968061083b633b9aca0061083561081c87611cf0565b6000888152600260208190526040909120015490611da6565b90611dff565b90611e59565b60008381526002602052604090206007015490915081101561087157506000818152600260205260409020600701545b919050565b60008281526002602052604080822080549151636eb1769f60e11b8152839289916001600160a01b039091169063dd62ed3e906108b9903390309060040161271b565b60206040518083038186803b1580156108d157600080fd5b505afa1580156108e5573d6000803e3d6000fd5b505050506040513d601f19601f8201168201806040525081019061090991906125db565b10156109305760405162461bcd60e51b815260040161092790612a81565b60405180910390fd5b6001600160a01b0386166109565760405162461bcd60e51b815260040161092790612886565b6000858152600260205260409020600a015460ff166109875760405162461bcd60e51b815260040161092790612962565b600681015443106109aa5760405162461bcd60e51b815260040161092790612999565b7f8f0783a6c1cb2d85a903a2db160118a565dc172b5e4da3d75733b7b5995a0fa1856109d587610dd1565b6109de886107ff565b6109e789611cf0565b6040516109f79493929190612b2c565b60405180910390a1610a0885611e9b565b6009810154600e8201541115610a305760405162461bcd60e51b8152600401610927906128bd565b610a3985611edf565b871015610a585760405162461bcd60e51b815260040161092790612a3e565b805460405163f182178360e01b81526000916001600160a01b037f000000000000000000000000000000000000000000000000000000000000000081169263f182178392610aac9216908d906004016127ba565b60206040518083038186803b158015610ac457600080fd5b505afa158015610ad8573d6000803e3d6000fd5b505050506040513d601f19601f82011682018060405250810190610afc91906125db565b90506000610b0a82886113df565b600d84015490915060ff1615610b57578083600b01541015610b3e5760405162461bcd60e51b8152600401610927906128f4565b600b830154610b4d908261204f565b600b840155610b90565b8983600b01541015610b7b5760405162461bcd60e51b81526004016109279061292b565b600b830154610b8a908b61204f565b600b8401555b62989680811015610bb35760405162461bcd60e51b815260040161092790612a07565b610bbc8761115c565b811115610bdb5760405162461bcd60e51b815260040161092790612ade565b82546040516323b872dd60e01b81526001600160a01b03909116906323b872dd90610c2e9033907f0000000000000000000000000000000000000000000000000000000000000000908f90600401612735565b602060405180830381600087803b158015610c4857600080fd5b505af1158015610c5c573d6000803e3d6000fd5b505050506040513d601f19601f82011682018060405250810190610c8091906125a7565b50600e830154610c909083611dff565b6000888152600260205260408120600e01919091556004840154610cb49043611dff565b600385015490915060ff16610cca575060058301545b6000600460009054906101000a90046001600160a01b03166001600160a01b031663f7e4ee108b8760000160009054906101000a90046001600160a01b03168f87878e6040518763ffffffff1660e01b8152600401610d2e96959493929190612782565b602060405180830381600087803b158015610d4857600080fd5b505af1158015610d5c573d6000803e3d6000fd5b505050506040513d601f19601f82011682018060405250810190610d8091906125db565b90507f6671c52657539dfe32e25a5646170ce70ec6adfebf197a90845ab3ec1e42569c898d8585604051610db79493929190612b2c565b60405180910390a1919b919a509098505050505050505050565b6000610ddb6124d3565b5060008281526002602081815260409283902083516101208101855281546001600160a01b0390811682526001830154811682850190815286516101008181018952968501548152600385015460ff90811615159682019690965260048501548189015260058501546060808301919091526006860154608080840191909152600787015460a080850191909152600888015460c080860191909152600989015460e0808701919091529b880194909452600a8801548916151592870192909252600b87015490860152600c86015490850152600d850154909516151594830194909452600e83015495820195909552600f90910154928101929092525190911615610f8357610f7c606461083b83602001516001600160a01b03166332da80a385600001516040518263ffffffff1660e01b8152600401610f1d9190612707565b60206040518083038186803b158015610f3557600080fd5b505afa158015610f49573d6000803e3d6000fd5b505050506040513d601f19601f82011682018060405250810190610f6d91906125db565b610f76876107ff565b90611da6565b9150611012565b61100f606461083b83600001516001600160a01b031663313ce5676040518163ffffffff1660e01b815260040160206040518083038186803b158015610fc857600080fd5b505afa158015610fdc573d6000803e3d6000fd5b505050506040513d601f19601f8201168201806040525081019061100091906126e0565b60ff16600a0a610f76876107ff565b91505b50919050565b600160009054906101000a90046001600160a01b03166001600160a01b0316630c340a246040518163ffffffff1660e01b815260040160206040518083038186803b15801561106657600080fd5b505afa15801561107a573d6000803e3d6000fd5b505050506040513d602081101561109057600080fd5b50516000906001600160a01b031633146111035760405162461bcd60e51b81526020600482019081528254600260001961010060018416150201909116046024830181905290918291604490910190849080156104895780601f1061045e57610100808354040283529160200191610489565b506004546001600160a01b03161561111a57600080fd5b6001600160a01b03811661112d57600080fd5b6004805473ffffffffffffffffffffffffffffffffffffffff19166001600160a01b0392909216919091179055565b6000611213620186a061083b60026000868152602001908152602001600020600201600601547f00000000000000000000000000000000000000000000000000000000000000006001600160a01b03166318160ddd6040518163ffffffff1660e01b815260040160206040518083038186803b1580156111db57600080fd5b505afa1580156111ef573d6000803e3d6000fd5b505050506040513d601f19601f82011682018060405250810190610f7691906125db565b92915050565b6004546001600160a01b031681565b60026020818152600092835260409283902080546001820154855161010081018752948301548552600383015460ff9081161515948601949094526004830154958501959095526005820154606085015260068201546080850152600782015460a0850152600882015460c0850152600982015460e0850152600a820154600b830154600c840154600d850154600e860154600f909601546001600160a01b03958616999095169796938416959294919316919089565b600160009054906101000a90046001600160a01b03166001600160a01b031663452a93206040518163ffffffff1660e01b815260040160206040518083038186803b15801561132d57600080fd5b505afa158015611341573d6000803e3d6000fd5b505050506040513d602081101561135757600080fd5b50516000906001600160a01b031633146113ca5760405162461bcd60e51b81526020600482019081528254600260001961010060018416150201909116046024830181905290918291604490910190849080156104895780601f1061045e57610100808354040283529160200191610489565b506000908152600260205260408120600b0155565b6000611406662386f26fc1000061083b611401866113fc876107ff565b612091565b612213565b9392505050565b600160009054906101000a90046001600160a01b03166001600160a01b0316630c340a246040518163ffffffff1660e01b815260040160206040518083038186803b15801561145b57600080fd5b505afa15801561146f573d6000803e3d6000fd5b505050506040513d602081101561148557600080fd5b50516000906001600160a01b031633146114f85760405162461bcd60e51b81526020600482019081528254600260001961010060018416150201909116046024830181905290918291604490910190849080156104895780601f1061045e57610100808354040283529160200191610489565b506001805473ffffffffffffffffffffffffffffffffffffffff19166001600160a01b0383169081179091556040517f2f658b440c35314f52658ea8a740e05b284cdc84dc9ae01e891f21b8933e7cad90600090a250565b60008181526002602052604080822054905163f182178360e01b81526001600160a01b039182169161160d917f00000000000000000000000000000000000000000000000000000000000000009091169063f1821783906115b790859089906004016127ba565b60206040518083038186803b1580156115cf57600080fd5b505afa1580156115e3573d6000803e3d6000fd5b505050506040513d601f19601f8201168201806040525081019061160791906125db565b846113df565b949350505050565b600061161f6124d3565b5060008281526002602081815260409283902083516101208101855281546001600160a01b0390811682526001830154811682850190815286516101008181018952968501548152600385015460ff90811615159682019690965260048501548189015260058501546060808301919091526006860154608080840191909152600787015460a080850191909152600888015460c080860191909152600989015460e0808701919091529b880194909452600a8801548916151592870192909252600b87015490860152600c86015490850152600d850154909516151594830194909452600e83015495820195909552600f909101549281019290925251909116156117c5576117bd633b9aca0061083b83602001516001600160a01b03166332da80a385600001516040518263ffffffff1660e01b81526004016117649190612707565b60206040518083038186803b15801561177c57600080fd5b505afa158015611790573d6000803e3d6000fd5b505050506040513d601f19601f820116820180604052508101906117b491906125db565b610f7687611cf0565b915050610871565b6117bd83611cf0565b600160009054906101000a90046001600160a01b03166001600160a01b031663452a93206040518163ffffffff1660e01b815260040160206040518083038186803b15801561181c57600080fd5b505afa158015611830573d6000803e3d6000fd5b505050506040513d602081101561184657600080fd5b50516000906001600160a01b031633146118b95760405162461bcd60e51b81526020600482019081528254600260001961010060018416150201909116046024830181905290918291604490910190849080156104895780601f1061045e57610100808354040283529160200191610489565b5060008a8152600260205260409020600a015460ff16156118ec5760405162461bcd60e51b8152600401610927906129d0565b6118f461248c565b506040805161010081018252998a529715156020808b019182528a8a0198895260608b0197885260808b0196875260a08b0195865260c08b0194855260e08b0193845260009b8c5260029081905298909a20985197890197909755975160038801805491151560ff1992831617905594516004880155925160058701559051600686015551600785015551600884015592516009830155600e820155600a0180549091166001179055565b60008060008060006119af61248c565b505050600093845250506002602081815260409384902084516101008101865292810154808452600382015460ff1615159284019290925260048101549483018590526005810154606084015260068101546080840152600781015460a08401819052600882015460c0850181905260099092015460e090940184905291959193509190565b6000611a3f6124d3565b50600082815260026020818152604080842081516101208101835281546001600160a01b0390811682526001830154168185015282516101008181018552958301548152600383015460ff90811615159582019590955260048301548185015260058301546060808301919091526006840154608080840191909152600785015460a080850191909152600886015460c080860191909152600987015460e08087019190915297860194909452600a8601548816151592850192909252600b85015490840152600c84015490830152600d830154909416151593810193909352600e81015491830191909152600f01549181018290529190611b4290439061204f565b9050611b6782604001516040015161083b838560e00151611da690919063ffffffff16565b92508160e00151831115611b7d578160e0015192505b5050919050565b6000611213611b9283611a35565b6000848152600260205260409020600e01549061204f565b600080611bb56124d3565b50505060009081526002602081815260409283902083516101208101855281546001600160a01b0390811682526001830154168184015284516101008181018752948301548152600383015460ff90811615159482019490945260048301548187015260058301546060808301919091526006840154608080840191909152600785015460a080850191909152600886015460c080860191909152600987015460e08087019190915299860194909452600a8601548716151592850192909252600b850154908401819052600c850154918401829052600d850154909516151591830191909152600e83015495820195909552600f9091015492019190915291565b6001546001600160a01b031681565b60038181548110611cd657600080fd5b6000918252602090912001546001600160a01b0316905081565b6000611213670de0b6b3a764000061083b611401611d15633b9aca00610f7688611b84565b7f00000000000000000000000000000000000000000000000000000000000000006001600160a01b03166318160ddd6040518163ffffffff1660e01b815260040160206040518083038186803b158015611d6e57600080fd5b505afa158015611d82573d6000803e3d6000fd5b505050506040513d601f19601f820116820180604052508101906113fc91906125db565b600082611db557506000611213565b82820282848281611dc257fe5b04146114065760405162461bcd60e51b8152600401808060200182810382526021815260200180612bb76021913960400191505060405180910390fd5b600082820183811015611406576040805162461bcd60e51b815260206004820152601b60248201527f536166654d6174683a206164646974696f6e206f766572666c6f770000000000604482015290519081900360640190fd5b600061140683836040518060400160405280601a81526020017f536166654d6174683a206469766973696f6e206279207a65726f00000000000081525061222b565b611ebf611ea782611a35565b6000838152600260205260409020600e01549061204f565b600091825260026020526040909120600e81019190915543600f90910155565b6000611ee96124d3565b5060008281526002602081815260409283902083516101208101855281546001600160a01b0390811682526001830154168184015284516101008181018752948301548152600383015460ff90811615159482019490945260048301548187015260058301546060808301919091526006840154608080840191909152600785015460a080850191909152600886015460c080860191909152600987015460e08087019190915299860194909452600a8601548716151592850192909252600b85015490840152600c84015490830152600d830154909316151592810192909252600e81015493820193909352600f90920154908201526120076298968061083b633b9aca00610835611ffb88611cf0565b60408701515190611da6565b9150806040015160a0015182101561202957806040015160a001519150611012565b604081015160a00151156110125760008381526002602052604081206007015550919050565b600061140683836040518060400160405280601e81526020017f536166654d6174683a207375627472616374696f6e206f766572666c6f7700008152506122dc565b612099612527565b600082116120d85760405162461bcd60e51b8152600401808060200182810382526026815260200180612b916026913960400191505060405180910390fd5b826120f25750604080516020810190915260008152611213565b71ffffffffffffffffffffffffffffffffffff831161219957600082607085901b8161211a57fe5b0490506001600160e01b03811115612179576040805162461bcd60e51b815260206004820152601e60248201527f4669786564506f696e743a3a6672616374696f6e3a206f766572666c6f770000604482015290519081900360640190fd5b6040518060200160405280826001600160e01b0316815250915050611213565b60006121b5846e01000000000000000000000000000085612336565b90506001600160e01b03811115612179576040805162461bcd60e51b815260206004820152601e60248201527f4669786564506f696e743a3a6672616374696f6e3a206f766572666c6f770000604482015290519081900360640190fd5b516612725dd1d243ab6001600160e01b039091160490565b600081836122b75760405162461bcd60e51b81526004018080602001828103825283818151815260200191508051906020019080838360005b8381101561227c578181015183820152602001612264565b50505050905090810190601f1680156122a95780820380516001836020036101000a031916815260200191505b509250505060405180910390fd5b5060008385816122c357fe5b0490508385816122cf57fe5b0681850201851461160d57fe5b6000818484111561232e5760405162461bcd60e51b815260206004820181815283516024840152835190928392604490910191908501908083836000831561227c578181015183820152602001612264565b505050900390565b600080600061234586866123ef565b915091506000848061235357fe5b868809905082811115612367576001820391505b9182900391816123855784838161237a57fe5b049350505050611406565b8482106123d9576040805162461bcd60e51b815260206004820152601a60248201527f46756c6c4d6174683a2046554c4c4449565f4f564552464c4f57000000000000604482015290519081900360640190fd5b6123e483838761241c565b979650505050505050565b6000808060001984860990508385029250828103915082811015612414576001820391505b509250929050565b6000818103821680838161242c57fe5b04925080858161243857fe5b04945080816000038161244757fe5b60028581038087028203028087028203028087028203028087028203028087028203028087028203029586029003909402930460010193909302939093010292915050565b604051806101000160405280600081526020016000151581526020016000815260200160008152602001600081526020016000815260200160008152602001600081525090565b6040805161012081018252600080825260208201529081016124f361248c565b8152602001600015158152602001600081526020016000815260200160001515815260200160008152602001600081525090565b60408051602081019091526000815290565b60006020828403121561254a578081fd5b813561140681612b6a565b6000806000806080858703121561256a578283fd5b843561257581612b6a565b9350602085013561258581612b6a565b925060408501359150606085013561259c81612b82565b939692955090935050565b6000602082840312156125b8578081fd5b815161140681612b82565b6000602082840312156125d4578081fd5b5035919050565b6000602082840312156125ec578081fd5b5051919050565b60008060408385031215612605578182fd5b50508035926020909101359150565b600080600080600060a0868803121561262b578081fd5b8535945060208601359350604086013561264481612b6a565b925060608601359150608086013561265b81612b6a565b809150509295509295909350565b6000806000806000806000806000806101408b8d031215612688578485fd5b8a35995060208b0135985060408b01356126a181612b82565b999c989b5098996060810135995060808101359860a0820135985060c0820135975060e082013596506101008201359550610120909101359350915050565b6000602082840312156126f1578081fd5b815160ff81168114611406578182fd5b15159052565b6001600160a01b0391909116815260200190565b6001600160a01b0392831681529116602082015260400190565b6001600160a01b039384168152919092166020820152604081019190915260600190565b6001600160a01b0394851681529290931660208301526040820152606081019190915260800190565b6001600160a01b039687168152948616602086015260408501939093526060840191909152608083015290911660a082015260c00190565b6001600160a01b03929092168252602082015260400190565b6000610200820190506001600160a01b03808c168352808b166020840152508851604083015260208901511515606083015260408901516080830152606089015160a0830152608089015160c083015260a089015160e083015260c089015161010083015260e0890151610120830152612851610140830189612701565b866101608301528561018083015261286d6101a0830186612701565b6101c08201939093526101e00152979650505050505050565b6020808252600f908201527f496e76616c696420616464726573730000000000000000000000000000000000604082015260600190565b60208082526011908201527f4d61782064656274206578636565646564000000000000000000000000000000604082015260600190565b60208082526017908201527f5061796f75742065786365656473206361706163697479000000000000000000604082015260600190565b60208082526017908201527f416d6f756e742065786365656473206361706163697479000000000000000000604082015260600190565b6020808252600f908201527f4e6f7420696e697469616c697a65640000000000000000000000000000000000604082015260600190565b6020808252600e908201527f426f6e6420636f6e636c75646564000000000000000000000000000000000000604082015260600190565b6020808252600b908201527f416c726561647920736574000000000000000000000000000000000000000000604082015260600190565b6020808252600e908201527f426f6e6420746f6f20736d616c6c000000000000000000000000000000000000604082015260600190565b60208082526023908201527f536c697070616765206c696d69743a206d6f7265207468616e206d617820707260408201526269636560e81b606082015260800190565b60208082526029908201527f4d75737420686176652074686520726571756972656420616c6c6f77616e636560408201527f20746f207370656e640000000000000000000000000000000000000000000000606082015260800190565b6020808252600e908201527f426f6e6420746f6f206c61726765000000000000000000000000000000000000604082015260600190565b90815260200190565b918252602082015260400190565b93845260208401929092526040830152606082015260800190565b948552602085019390935260408401919091526060830152608082015260a00190565b6001600160a01b0381168114612b7f57600080fd5b50565b8015158114612b7f57600080fdfe4669786564506f696e743a3a6672616374696f6e3a206469766973696f6e206279207a65726f536166654d6174683a206d756c7469706c69636174696f6e206f766572666c6f77a164736f6c6343000705000a",
  "linkReferences": {},
  "deployedLinkReferences": {}
}